{
  "contractName": "InstanceOperatorService",
  "abi": [
    {
      "constant": false,
      "inputs": [
        {
          "name": "_registry",
          "type": "address"
        }
      ],
      "name": "assignRegistry",
      "outputs": [],
      "payable": false,
      "stateMutability": "nonpayable",
      "type": "function",
      "signature": "0x51b68ee4"
    },
    {
      "constant": false,
      "inputs": [],
      "name": "renounceOwnership",
      "outputs": [],
      "payable": false,
      "stateMutability": "nonpayable",
      "type": "function",
      "signature": "0x715018a6"
    },
    {
      "constant": true,
      "inputs": [],
      "name": "registry",
      "outputs": [
        {
          "name": "",
          "type": "address"
        }
      ],
      "payable": false,
      "stateMutability": "view",
      "type": "function",
      "signature": "0x7b103999"
    },
    {
      "constant": true,
      "inputs": [],
      "name": "owner",
      "outputs": [
        {
          "name": "",
          "type": "address"
        }
      ],
      "payable": false,
      "stateMutability": "view",
      "type": "function",
      "signature": "0x8da5cb5b"
    },
    {
      "constant": true,
      "inputs": [],
      "name": "isOwner",
      "outputs": [
        {
          "name": "",
          "type": "bool"
        }
      ],
      "payable": false,
      "stateMutability": "view",
      "type": "function",
      "signature": "0x8f32d59b"
    },
    {
      "constant": true,
      "inputs": [],
      "name": "NAME",
      "outputs": [
        {
          "name": "",
          "type": "bytes32"
        }
      ],
      "payable": false,
      "stateMutability": "view",
      "type": "function",
      "signature": "0xa3f4df7e"
    },
    {
      "constant": true,
      "inputs": [
        {
          "name": "_contractName",
          "type": "bytes32"
        }
      ],
      "name": "getService",
      "outputs": [
        {
          "name": "_addr",
          "type": "address"
        }
      ],
      "payable": false,
      "stateMutability": "view",
      "type": "function",
      "signature": "0xda47d856"
    },
    {
      "constant": true,
      "inputs": [
        {
          "name": "_contractName",
          "type": "bytes32"
        }
      ],
      "name": "getContract",
      "outputs": [
        {
          "name": "_addr",
          "type": "address"
        }
      ],
      "payable": false,
      "stateMutability": "view",
      "type": "function",
      "signature": "0xe16c7d98"
    },
    {
      "constant": false,
      "inputs": [
        {
          "name": "newOwner",
          "type": "address"
        }
      ],
      "name": "transferOwnership",
      "outputs": [],
      "payable": false,
      "stateMutability": "nonpayable",
      "type": "function",
      "signature": "0xf2fde38b"
    },
    {
      "inputs": [
        {
          "name": "_registry",
          "type": "address"
        }
      ],
      "payable": false,
      "stateMutability": "nonpayable",
      "type": "constructor",
      "signature": "constructor"
    },
    {
      "anonymous": false,
      "inputs": [
        {
          "indexed": true,
          "name": "previousOwner",
          "type": "address"
        },
        {
          "indexed": true,
          "name": "newOwner",
          "type": "address"
        }
      ],
      "name": "OwnershipTransferred",
      "type": "event",
      "signature": "0x8be0079c531659141344cd1fd0a4f28419497f9722a3daafe3b4186f6b6457e0"
    },
    {
      "constant": false,
      "inputs": [
        {
          "name": "_productId",
          "type": "uint256"
        }
      ],
      "name": "approveProduct",
      "outputs": [],
      "payable": false,
      "stateMutability": "nonpayable",
      "type": "function",
      "signature": "0x27d55495"
    },
    {
      "constant": false,
      "inputs": [
        {
          "name": "_productId",
          "type": "uint256"
        }
      ],
      "name": "disapproveProduct",
      "outputs": [],
      "payable": false,
      "stateMutability": "nonpayable",
      "type": "function",
      "signature": "0xb4ec459d"
    },
    {
      "constant": false,
      "inputs": [
        {
          "name": "_productId",
          "type": "uint256"
        }
      ],
      "name": "pauseProduct",
      "outputs": [],
      "payable": false,
      "stateMutability": "nonpayable",
      "type": "function",
      "signature": "0xf2272a79"
    },
    {
      "constant": false,
      "inputs": [
        {
          "name": "_productId",
          "type": "uint256"
        }
      ],
      "name": "unpauseProduct",
      "outputs": [],
      "payable": false,
      "stateMutability": "nonpayable",
      "type": "function",
      "signature": "0x1b164987"
    },
    {
      "constant": false,
      "inputs": [
        {
          "name": "_release",
          "type": "uint256"
        },
        {
          "name": "_contractName",
          "type": "bytes32"
        },
        {
          "name": "_contractAddress",
          "type": "address"
        }
      ],
      "name": "registerInRelease",
      "outputs": [],
      "payable": false,
      "stateMutability": "nonpayable",
      "type": "function",
      "signature": "0xf253f403"
    },
    {
      "constant": false,
      "inputs": [
        {
          "name": "_contractName",
          "type": "bytes32"
        },
        {
          "name": "_contractAddress",
          "type": "address"
        }
      ],
      "name": "register",
      "outputs": [],
      "payable": false,
      "stateMutability": "nonpayable",
      "type": "function",
      "signature": "0xd22057a9"
    },
    {
      "constant": false,
      "inputs": [
        {
          "name": "_release",
          "type": "uint256"
        },
        {
          "name": "_contractName",
          "type": "bytes32"
        }
      ],
      "name": "deregisterInRelease",
      "outputs": [],
      "payable": false,
      "stateMutability": "nonpayable",
      "type": "function",
      "signature": "0xdee86bc2"
    },
    {
      "constant": false,
      "inputs": [
        {
          "name": "_contractName",
          "type": "bytes32"
        }
      ],
      "name": "deregister",
      "outputs": [],
      "payable": false,
      "stateMutability": "nonpayable",
      "type": "function",
      "signature": "0x20813154"
    },
    {
      "constant": false,
      "inputs": [],
      "name": "prepareRelease",
      "outputs": [
        {
          "name": "_release",
          "type": "uint256"
        }
      ],
      "payable": false,
      "stateMutability": "nonpayable",
      "type": "function",
      "signature": "0xdfba2a6c"
    },
    {
      "constant": false,
      "inputs": [
        {
          "name": "_oracleTypeName",
          "type": "bytes32"
        }
      ],
      "name": "activateOracleType",
      "outputs": [],
      "payable": false,
      "stateMutability": "nonpayable",
      "type": "function",
      "signature": "0x4df83672"
    },
    {
      "constant": false,
      "inputs": [
        {
          "name": "_oracleId",
          "type": "uint256"
        }
      ],
      "name": "activateOracle",
      "outputs": [],
      "payable": false,
      "stateMutability": "nonpayable",
      "type": "function",
      "signature": "0xd114d8a1"
    },
    {
      "constant": false,
      "inputs": [
        {
          "name": "_oracleTypeName",
          "type": "bytes32"
        },
        {
          "name": "_oracleId",
          "type": "uint256"
        }
      ],
      "name": "assignOracleToOracleType",
      "outputs": [],
      "payable": false,
      "stateMutability": "nonpayable",
      "type": "function",
      "signature": "0xcd748de8"
    }
  ],
  "bytecode": "0x608060405234801561001057600080fd5b50604051602080610e4d8339810180604052602081101561003057600080fd5b505160008054600160a060020a03808416600160a060020a031992831617835560018054909216331791829055604051911691907f8be0079c531659141344cd1fd0a4f28419497f9722a3daafe3b4186f6b6457e0908290a350610db4806100996000396000f3fe608060405234801561001057600080fd5b506004361061013b5760003560e060020a90048063b4ec459d116100bc578063dee86bc211610080578063dee86bc2146102ec578063dfba2a6c1461030f578063e16c7d9814610317578063f2272a7914610334578063f253f40314610351578063f2fde38b146103835761013b565b8063b4ec459d14610246578063cd748de814610263578063d114d8a114610286578063d22057a9146102a3578063da47d856146102cf5761013b565b8063715018a611610103578063715018a6146101dc5780637b103999146101e45780638da5cb5b146102085780638f32d59b14610210578063a3f4df7e1461022c5761013b565b80631b16498714610140578063208131541461015f57806327d554951461017c5780634df836721461019957806351b68ee4146101b6575b600080fd5b61015d6004803603602081101561015657600080fd5b50356103a9565b005b61015d6004803603602081101561017557600080fd5b5035610427565b61015d6004803603602081101561019257600080fd5b503561049b565b61015d600480360360208110156101af57600080fd5b50356104fe565b61015d600480360360208110156101cc57600080fd5b5035600160a060020a0316610561565b61015d61062f565b6101ec610699565b60408051600160a060020a039092168252519081900360200190f35b6101ec6106a8565b6102186106b7565b604080519115158252519081900360200190f35b6102346106c8565b60408051918252519081900360200190f35b61015d6004803603602081101561025c57600080fd5b50356106ec565b61015d6004803603604081101561027957600080fd5b508035906020013561074f565b61015d6004803603602081101561029c57600080fd5b50356107d6565b61015d600480360360408110156102b957600080fd5b5080359060200135600160a060020a0316610839565b6101ec600480360360208110156102e557600080fd5b50356108b7565b61015d6004803603604081101561030257600080fd5b508035906020013561094f565b6102346109ca565b6101ec6004803603602081101561032d57600080fd5b5035610a62565b61015d6004803603602081101561034a57600080fd5b5035610ac8565b61015d6004803603606081101561036757600080fd5b5080359060208101359060400135600160a060020a0316610b2b565b61015d6004803603602081101561039957600080fd5b5035600160a060020a0316610bcd565b6103b16106b7565b15156103bc57600080fd5b6103c4610bec565b600160a060020a0316631b164987826040518263ffffffff1660e060020a02815260040180828152602001915050600060405180830381600087803b15801561040c57600080fd5b505af1158015610420573d6000803e3d6000fd5b5050505050565b61042f6106b7565b151561043a57600080fd5b60008054604080517f20813154000000000000000000000000000000000000000000000000000000008152600481018590529051600160a060020a039092169263208131549260248084019382900301818387803b15801561040c57600080fd5b6104a36106b7565b15156104ae57600080fd5b6104b6610bec565b600160a060020a03166327d55495826040518263ffffffff1660e060020a02815260040180828152602001915050600060405180830381600087803b15801561040c57600080fd5b6105066106b7565b151561051157600080fd5b610519610c85565b600160a060020a0316634df83672826040518263ffffffff1660e060020a02815260040180828152602001915050600060405180830381600087803b15801561040c57600080fd5b61058a7f496e7374616e63654f70657261746f72000000000000000000000000000000006108b7565b600160a060020a0316331461060057604080517f08c379a000000000000000000000000000000000000000000000000000000000815260206004820152601c60248201527f4552524f523a3a4e4f545f494e5354414e43455f4f50455241544f5200000000604482015290519081900360640190fd5b6000805473ffffffffffffffffffffffffffffffffffffffff1916600160a060020a0392909216919091179055565b6106376106b7565b151561064257600080fd5b600154604051600091600160a060020a0316907f8be0079c531659141344cd1fd0a4f28419497f9722a3daafe3b4186f6b6457e0908390a36001805473ffffffffffffffffffffffffffffffffffffffff19169055565b600054600160a060020a031681565b600154600160a060020a031690565b600154600160a060020a0316331490565b7f496e7374616e63654f70657261746f720000000000000000000000000000000081565b6106f46106b7565b15156106ff57600080fd5b610707610bec565b600160a060020a031663b4ec459d826040518263ffffffff1660e060020a02815260040180828152602001915050600060405180830381600087803b15801561040c57600080fd5b6107576106b7565b151561076257600080fd5b61076a610c85565b600160a060020a031663cd748de883836040518363ffffffff1660e060020a0281526004018083815260200182815260200192505050600060405180830381600087803b1580156107ba57600080fd5b505af11580156107ce573d6000803e3d6000fd5b505050505050565b6107de6106b7565b15156107e957600080fd5b6107f1610c85565b600160a060020a031663d114d8a1826040518263ffffffff1660e060020a02815260040180828152602001915050600060405180830381600087803b15801561040c57600080fd5b6108416106b7565b151561084c57600080fd5b60008054604080517fd22057a900000000000000000000000000000000000000000000000000000000815260048101869052600160a060020a0385811660248301529151919092169263d22057a9926044808201939182900301818387803b1580156107ba57600080fd5b60008054604080517fda47d856000000000000000000000000000000000000000000000000000000008152600481018590529051600160a060020a039092169163da47d85691602480820192602092909190829003018186803b15801561091d57600080fd5b505afa158015610931573d6000803e3d6000fd5b505050506040513d602081101561094757600080fd5b505192915050565b6109576106b7565b151561096257600080fd5b60008054604080517fdee86bc200000000000000000000000000000000000000000000000000000000815260048101869052602481018590529051600160a060020a039092169263dee86bc29260448084019382900301818387803b1580156107ba57600080fd5b60006109d46106b7565b15156109df57600080fd5b6000809054906101000a9004600160a060020a0316600160a060020a031663dfba2a6c6040518163ffffffff1660e060020a028152600401602060405180830381600087803b158015610a3157600080fd5b505af1158015610a45573d6000803e3d6000fd5b505050506040513d6020811015610a5b57600080fd5b5051919050565b60008054604080517fe16c7d98000000000000000000000000000000000000000000000000000000008152600481018590529051600160a060020a039092169163e16c7d9891602480820192602092909190829003018186803b15801561091d57600080fd5b610ad06106b7565b1515610adb57600080fd5b610ae3610bec565b600160a060020a031663f2272a79826040518263ffffffff1660e060020a02815260040180828152602001915050600060405180830381600087803b15801561040c57600080fd5b610b336106b7565b1515610b3e57600080fd5b60008054604080517ff253f4030000000000000000000000000000000000000000000000000000000081526004810187905260248101869052600160a060020a0385811660448301529151919092169263f253f403926064808201939182900301818387803b158015610bb057600080fd5b505af1158015610bc4573d6000803e3d6000fd5b50505050505050565b610bd56106b7565b1515610be057600080fd5b610be981610d0a565b50565b60008054604080517fe16c7d980000000000000000000000000000000000000000000000000000000081527f4c6963656e73650000000000000000000000000000000000000000000000000060048201529051600160a060020a039092169163e16c7d9891602480820192602092909190829003018186803b158015610c7157600080fd5b505afa158015610a45573d6000803e3d6000fd5b60008054604080517fe16c7d980000000000000000000000000000000000000000000000000000000081527f517565727900000000000000000000000000000000000000000000000000000060048201529051600160a060020a039092169163e16c7d9891602480820192602092909190829003018186803b158015610c7157600080fd5b600160a060020a0381161515610d1f57600080fd5b600154604051600160a060020a038084169216907f8be0079c531659141344cd1fd0a4f28419497f9722a3daafe3b4186f6b6457e090600090a36001805473ffffffffffffffffffffffffffffffffffffffff1916600160a060020a039290921691909117905556fea165627a7a72305820bb625e76afd0c0416bdbed6ec70efb29e197c0c434bce61586c0a62923a868ff0029",
  "source": "pragma solidity 0.5.2;\n\nimport \"openzeppelin-solidity/contracts/ownership/Ownable.sol\";\nimport \"../modules/license/ILicenseController.sol\";\nimport \"../modules/registry/IRegistryController.sol\";\nimport \"../modules/query/IQueryController.sol\";\nimport \"../shared/WithRegistry.sol\";\n\ncontract InstanceOperatorService is WithRegistry, Ownable {\n    bytes32 public constant NAME = \"InstanceOperator\";\n\n    constructor(address _registry) public WithRegistry(_registry) {}\n\n    /* License */\n    function approveProduct(uint256 _productId) external onlyOwner {\n        license().approveProduct(_productId);\n    }\n\n    function disapproveProduct(uint256 _productId) external onlyOwner {\n        license().disapproveProduct(_productId);\n    }\n\n    function pauseProduct(uint256 _productId) external onlyOwner {\n        license().pauseProduct(_productId);\n    }\n\n    function unpauseProduct(uint256 _productId) external onlyOwner {\n        license().unpauseProduct(_productId);\n    }\n    \n    /* Registry */\n    function registerInRelease(\n        uint256 _release,\n        bytes32 _contractName,\n        address _contractAddress\n    ) external onlyOwner {\n        registry.registerInRelease(_release, _contractName, _contractAddress);\n    }\n\n    function register(bytes32 _contractName, address _contractAddress)\n        external\n        onlyOwner\n    {\n        registry.register(_contractName, _contractAddress);\n    }\n\n    function deregisterInRelease(uint256 _release, bytes32 _contractName)\n        external\n        onlyOwner\n    {\n        registry.deregisterInRelease(_release, _contractName);\n    }\n\n    function deregister(bytes32 _contractName) external onlyOwner {\n        registry.deregister(_contractName);\n    }\n\n    function prepareRelease() external onlyOwner returns (uint256 _release) {\n        _release = registry.prepareRelease();\n    }\n\n    /* Query */\n    function activateOracleType(bytes32 _oracleTypeName) external onlyOwner {\n        query().activateOracleType(_oracleTypeName);\n    }\n\n    function activateOracle(uint256 _oracleId) external onlyOwner {\n        query().activateOracle(_oracleId);\n    }\n\n    function assignOracleToOracleType(\n        bytes32 _oracleTypeName,\n        uint256 _oracleId\n    ) external onlyOwner {\n        query().assignOracleToOracleType(_oracleTypeName, _oracleId);\n    }\n\n    /* Lookup */\n    function license() internal view returns (ILicenseController) {\n        return ILicenseController(registry.getContract(\"License\"));\n    }\n\n    function query() internal view returns (IQueryController) {\n        return IQueryController(registry.getContract(\"Query\"));\n    }\n}\n",
  "sourcePath": "/Users/jo/projects/raincoat/gif/framework/core/gif-contracts/contracts/services/InstanceOperatorService.sol",
  "compiler": {
    "name": "solc",
    "version": "0.5.2+commit.1df8f40c.Emscripten.clang"
  },
  "schemaVersion": "3.0.2",
  "updatedAt": "2019-07-10T06:02:28.114Z",
  "devdoc": {
    "methods": {
      "isOwner()": {
        "return": "true if `msg.sender` is the owner of the contract."
      },
      "owner()": {
        "return": "the address of the owner."
      },
      "renounceOwnership()": {
        "details": "Allows the current owner to relinquish control of the contract."
      },
      "transferOwnership(address)": {
        "details": "Allows the current owner to transfer control of the contract to a newOwner.",
        "params": {
          "newOwner": "The address to transfer ownership to."
        }
      }
    }
  },
  "userdoc": {
    "methods": {
      "renounceOwnership()": {
        "notice": "Renouncing to ownership will leave the contract without an owner. It will not be possible to call the functions with the `onlyOwner` modifier anymore."
      }
    }
  }
}