{
  "contractName": "LicenseController",
  "abi": [
    {
      "constant": true,
      "inputs": [
        {
          "name": "",
          "type": "address"
        }
      ],
      "name": "productIdByAddress",
      "outputs": [
        {
          "name": "",
          "type": "uint256"
        }
      ],
      "payable": false,
      "stateMutability": "view",
      "type": "function"
    },
    {
      "constant": false,
      "inputs": [
        {
          "name": "_registry",
          "type": "address"
        }
      ],
      "name": "assignRegistry",
      "outputs": [],
      "payable": false,
      "stateMutability": "nonpayable",
      "type": "function"
    },
    {
      "constant": true,
      "inputs": [
        {
          "name": "",
          "type": "uint256"
        }
      ],
      "name": "products",
      "outputs": [
        {
          "name": "productOwner",
          "type": "address"
        },
        {
          "name": "name",
          "type": "bytes32"
        },
        {
          "name": "addr",
          "type": "address"
        },
        {
          "name": "policyFlow",
          "type": "bytes32"
        },
        {
          "name": "release",
          "type": "uint256"
        },
        {
          "name": "policyToken",
          "type": "address"
        },
        {
          "name": "approved",
          "type": "bool"
        },
        {
          "name": "paused",
          "type": "bool"
        }
      ],
      "payable": false,
      "stateMutability": "view",
      "type": "function"
    },
    {
      "constant": true,
      "inputs": [],
      "name": "registry",
      "outputs": [
        {
          "name": "",
          "type": "address"
        }
      ],
      "payable": false,
      "stateMutability": "view",
      "type": "function"
    },
    {
      "constant": true,
      "inputs": [],
      "name": "NAME",
      "outputs": [
        {
          "name": "",
          "type": "bytes32"
        }
      ],
      "payable": false,
      "stateMutability": "view",
      "type": "function"
    },
    {
      "constant": true,
      "inputs": [],
      "name": "delegator",
      "outputs": [
        {
          "name": "",
          "type": "address"
        }
      ],
      "payable": false,
      "stateMutability": "view",
      "type": "function"
    },
    {
      "constant": true,
      "inputs": [
        {
          "name": "_contractName",
          "type": "bytes32"
        }
      ],
      "name": "getService",
      "outputs": [
        {
          "name": "_addr",
          "type": "address"
        }
      ],
      "payable": false,
      "stateMutability": "view",
      "type": "function"
    },
    {
      "constant": true,
      "inputs": [
        {
          "name": "_contractName",
          "type": "bytes32"
        }
      ],
      "name": "getContract",
      "outputs": [
        {
          "name": "_addr",
          "type": "address"
        }
      ],
      "payable": false,
      "stateMutability": "view",
      "type": "function"
    },
    {
      "constant": false,
      "inputs": [
        {
          "name": "_storage",
          "type": "address"
        }
      ],
      "name": "assignStorage",
      "outputs": [],
      "payable": false,
      "stateMutability": "nonpayable",
      "type": "function"
    },
    {
      "constant": true,
      "inputs": [],
      "name": "productIdIncrement",
      "outputs": [
        {
          "name": "",
          "type": "uint256"
        }
      ],
      "payable": false,
      "stateMutability": "view",
      "type": "function"
    },
    {
      "inputs": [
        {
          "name": "_registry",
          "type": "address"
        },
        {
          "name": "_productIdIncrement",
          "type": "uint256"
        }
      ],
      "payable": false,
      "stateMutability": "nonpayable",
      "type": "constructor"
    },
    {
      "payable": false,
      "stateMutability": "nonpayable",
      "type": "fallback"
    },
    {
      "anonymous": false,
      "inputs": [
        {
          "indexed": false,
          "name": "productId",
          "type": "uint256"
        },
        {
          "indexed": false,
          "name": "name",
          "type": "bytes32"
        },
        {
          "indexed": false,
          "name": "addr",
          "type": "address"
        },
        {
          "indexed": false,
          "name": "policyFlow",
          "type": "bytes32"
        }
      ],
      "name": "LogNewProduct",
      "type": "event"
    },
    {
      "anonymous": false,
      "inputs": [
        {
          "indexed": false,
          "name": "productId",
          "type": "uint256"
        },
        {
          "indexed": false,
          "name": "name",
          "type": "bytes32"
        },
        {
          "indexed": false,
          "name": "addr",
          "type": "address"
        }
      ],
      "name": "LogProductApproved",
      "type": "event"
    },
    {
      "anonymous": false,
      "inputs": [
        {
          "indexed": false,
          "name": "productId",
          "type": "uint256"
        },
        {
          "indexed": false,
          "name": "name",
          "type": "bytes32"
        },
        {
          "indexed": false,
          "name": "addr",
          "type": "address"
        }
      ],
      "name": "LogProductDisapproved",
      "type": "event"
    },
    {
      "anonymous": false,
      "inputs": [
        {
          "indexed": false,
          "name": "productId",
          "type": "uint256"
        },
        {
          "indexed": false,
          "name": "name",
          "type": "bytes32"
        },
        {
          "indexed": false,
          "name": "addr",
          "type": "address"
        }
      ],
      "name": "LogProductPaused",
      "type": "event"
    },
    {
      "anonymous": false,
      "inputs": [
        {
          "indexed": false,
          "name": "productId",
          "type": "uint256"
        },
        {
          "indexed": false,
          "name": "name",
          "type": "bytes32"
        },
        {
          "indexed": false,
          "name": "addr",
          "type": "address"
        }
      ],
      "name": "LogProductUnpaused",
      "type": "event"
    },
    {
      "constant": false,
      "inputs": [
        {
          "name": "_name",
          "type": "bytes32"
        },
        {
          "name": "_addr",
          "type": "address"
        },
        {
          "name": "_policyFlow",
          "type": "bytes32"
        }
      ],
      "name": "register",
      "outputs": [
        {
          "name": "_id",
          "type": "uint256"
        }
      ],
      "payable": false,
      "stateMutability": "nonpayable",
      "type": "function"
    },
    {
      "constant": false,
      "inputs": [
        {
          "name": "_id",
          "type": "uint256"
        }
      ],
      "name": "approveProduct",
      "outputs": [],
      "payable": false,
      "stateMutability": "nonpayable",
      "type": "function"
    },
    {
      "constant": false,
      "inputs": [
        {
          "name": "_id",
          "type": "uint256"
        }
      ],
      "name": "disapproveProduct",
      "outputs": [],
      "payable": false,
      "stateMutability": "nonpayable",
      "type": "function"
    },
    {
      "constant": false,
      "inputs": [
        {
          "name": "_id",
          "type": "uint256"
        }
      ],
      "name": "pauseProduct",
      "outputs": [],
      "payable": false,
      "stateMutability": "nonpayable",
      "type": "function"
    },
    {
      "constant": false,
      "inputs": [
        {
          "name": "_id",
          "type": "uint256"
        }
      ],
      "name": "unpauseProduct",
      "outputs": [],
      "payable": false,
      "stateMutability": "nonpayable",
      "type": "function"
    },
    {
      "constant": true,
      "inputs": [
        {
          "name": "_addr",
          "type": "address"
        }
      ],
      "name": "isApprovedProduct",
      "outputs": [
        {
          "name": "_approved",
          "type": "bool"
        }
      ],
      "payable": false,
      "stateMutability": "view",
      "type": "function"
    },
    {
      "constant": true,
      "inputs": [
        {
          "name": "_addr",
          "type": "address"
        }
      ],
      "name": "isPausedProduct",
      "outputs": [
        {
          "name": "_paused",
          "type": "bool"
        }
      ],
      "payable": false,
      "stateMutability": "view",
      "type": "function"
    },
    {
      "constant": true,
      "inputs": [
        {
          "name": "_addr",
          "type": "address"
        }
      ],
      "name": "isValidCall",
      "outputs": [
        {
          "name": "_valid",
          "type": "bool"
        }
      ],
      "payable": false,
      "stateMutability": "view",
      "type": "function"
    },
    {
      "constant": true,
      "inputs": [
        {
          "name": "_sender",
          "type": "address"
        }
      ],
      "name": "authorize",
      "outputs": [
        {
          "name": "_authorized",
          "type": "bool"
        },
        {
          "name": "_policyFlow",
          "type": "address"
        }
      ],
      "payable": false,
      "stateMutability": "view",
      "type": "function"
    },
    {
      "constant": true,
      "inputs": [
        {
          "name": "_addr",
          "type": "address"
        }
      ],
      "name": "getProductId",
      "outputs": [
        {
          "name": "_productId",
          "type": "uint256"
        }
      ],
      "payable": false,
      "stateMutability": "view",
      "type": "function"
    }
  ],
  "bytecode": "0x608060405234801561001057600080fd5b5060405160408061154f8339810180604052604081101561003057600080fd5b50805160209091015160038054600160a060020a031916600160a060020a03909316929092179091556002556114e48061006b6000396000f3fe608060405234801561001057600080fd5b5060043610610149576000357c010000000000000000000000000000000000000000000000000000000090048063a8ef6228116100ca578063e16c7d981161008e578063e16c7d98146103fe578063e71359bf1461041b578063e91a34fc14610441578063eff885cf14610467578063f2272a791461046f57610149565b8063a8ef62281461034d578063b4ec459d14610373578063b6a5d7de14610390578063ce9b7930146103d9578063da47d856146103e157610149565b806351b68ee41161011157806351b68ee4146102635780637acc0b20146102895780637b103999146102fb5780638521f79b1461031f578063a3f4df7e1461034557610149565b806302f01e521461018357806317ac8902146101bd5780631b1649871461020157806327d5549514610220578063317349f21461023d575b60405160e560020a62461bcd0281526004018080602001828103825260248152602001806113c66024913960400191505060405180910390fd5b6101a96004803603602081101561019957600080fd5b5035600160a060020a031661048c565b604080519115158252519081900360200190f35b6101ef600480360360608110156101d357600080fd5b50803590600160a060020a03602082013516906040013561051e565b60408051918252519081900360200190f35b61021e6004803603602081101561021757600080fd5b503561064d565b005b61021e6004803603602081101561023657600080fd5b503561080f565b6101ef6004803603602081101561025357600080fd5b5035600160a060020a0316610a3a565b61021e6004803603602081101561027957600080fd5b5035600160a060020a0316610a4c565b6102a66004803603602081101561029f57600080fd5b5035610adf565b60408051600160a060020a03998a1681526020810198909852958816878701526060870194909452608086019290925290941660a084015292151560c083015291151560e08201529051908190036101000190f35b610303610b49565b60408051600160a060020a039092168252519081900360200190f35b6101a96004803603602081101561033557600080fd5b5035600160a060020a0316610b58565b6101ef610ba2565b6101a96004803603602081101561036357600080fd5b5035600160a060020a0316610bc6565b61021e6004803603602081101561038957600080fd5b5035610be8565b6103b6600480360360208110156103a657600080fd5b5035600160a060020a0316610e21565b604080519215158352600160a060020a0390911660208301528051918290030190f35b610303610e6f565b610303600480360360208110156103f757600080fd5b5035610e7e565b6103036004803603602081101561041457600080fd5b5035610f15565b61021e6004803603602081101561043157600080fd5b5035600160a060020a0316610f7a565b6101ef6004803603602081101561045757600080fd5b5035600160a060020a0316610fea565b6101ef61105f565b61021e6004803603602081101561048557600080fd5b5035611065565b600160a060020a03811660009081526001602081815260408084205484529083905282206005015460a060020a900460ff1615151480156104e35750600160a060020a038216600090815260016020526040812054115b80156105185750600160a060020a03808316600081815260016020908152604080832054835290829052902060020154909116145b92915050565b600160a060020a0382166000908152600160205260408120541561058c576040805160e560020a62461bcd02815260206004820152601860248201527f4552524f523a3a50524f445543545f49535f4143544956450000000000000000604482015290519081900360640190fd5b506002805460019081018083556000818152602081905260409020918201869055918101805473ffffffffffffffffffffffffffffffffffffffff1916600160a060020a0386161790556003018290556105e461123f565b60008281526020818152604091829020600401929092558051838152918201869052600160a060020a0385168282015260608201849052517f5eb7a6a0da59c1ef5ec5e4efc349eb389bc461fb343f88f9acfe0dfe123664289181900360800190a19392505050565b61066460008051602061142f833981519152610e7e565b600160a060020a031633146106b1576040805160e560020a62461bcd02815260206004820152601c6024820152600080516020611479833981519152604482015290519081900360640190fd5b600081815260208190526040902060020154600160a060020a03161515610710576040805160e560020a62461bcd0281526020600482015260196024820152600080516020611499833981519152604482015290519081900360640190fd5b60008181526020818152604080832060020154600160a060020a0316835260019091528120541161078b576040805160e560020a62461bcd02815260206004820152601960248201527f4552524f523a3a50524f445543545f4e4f545f41435449564500000000000000604482015290519081900360640190fd5b6000818152602081815260409182902060058101805475ff000000000000000000000000000000000000000000191690556001810154600290910154835185815292830191909152600160a060020a03168183015290517feced7c3eaa8f32e72f6f19689a4dde7ca287e9263e6e9673794a88b5e5ca55979181900360600190a150565b61082660008051602061142f833981519152610e7e565b600160a060020a03163314610873576040805160e560020a62461bcd02815260206004820152601c6024820152600080516020611479833981519152604482015290519081900360640190fd5b600081815260208190526040902060020154600160a060020a031615156108d2576040805160e560020a62461bcd0281526020600482015260196024820152600080516020611499833981519152604482015290519081900360640190fd5b60008181526020819052604090206005015460a060020a900460ff161515600114156109325760405160e560020a62461bcd02815260040180806020018281038252602281526020018061140d6022913960400191505060405180910390fd5b60008181526020818152604080832060020154600160a060020a031683526001909152902054156109975760405160e560020a62461bcd02815260040180806020018281038252602a81526020018061144f602a913960400191505060405180910390fd5b60008181526020818152604080832060058101805474ff0000000000000000000000000000000000000000191660a060020a179055600281018054600160a060020a039081168652600180865284872088905587875295855291909401549354825186815293840194909452929092168183015290517fc02417d4e28d573062f112c6f15bb9e775325620285ffbaba0f85b3224d988f59181900360600190a150565b60016020526000908152604090205481565b610a6360008051602061142f833981519152610e7e565b600160a060020a03163314610ab0576040805160e560020a62461bcd02815260206004820152601c6024820152600080516020611479833981519152604482015290519081900360640190fd5b6003805473ffffffffffffffffffffffffffffffffffffffff1916600160a060020a0392909216919091179055565b600060208190529081526040902080546001820154600283015460038401546004850154600590950154600160a060020a0394851695939492831693919281169060ff60a060020a8204811691750100000000000000000000000000000000000000000090041688565b600354600160a060020a031681565b600160a060020a0316600090815260016020818152604080842054845290839052909120600501547501000000000000000000000000000000000000000000900460ff1615151490565b7f4c6963656e7365436f6e74726f6c6c657200000000000000000000000000000081565b6000610bd18261048c565b80156105185750610be182610b58565b1592915050565b610bff60008051602061142f833981519152610e7e565b600160a060020a03163314610c4c576040805160e560020a62461bcd02815260206004820152601c6024820152600080516020611479833981519152604482015290519081900360640190fd5b600081815260208190526040902060020154600160a060020a03161515610cab576040805160e560020a62461bcd0281526020600482015260196024820152600080516020611499833981519152604482015290519081900360640190fd5b60008181526020819052604090206005015460a060020a900460ff161515600114610d20576040805160e560020a62461bcd02815260206004820152601b60248201527f4552524f523a3a50524f445543545f4e4f545f415050524f5645440000000000604482015290519081900360640190fd5b60008181526020818152604080832060020154600160a060020a03168352600190915281205411610d855760405160e560020a62461bcd0281526004018080602001828103825260238152602001806113ea6023913960400191505060405180910390fd5b60008181526020818152604080832060058101805474ff000000000000000000000000000000000000000019169055600281018054600160a060020a0390811686526001808652848720879055878752958552949091015490548251868152938401919091529092168183015290517f1ac468a421b26e7d3c5546cdb1993cf89d99727f9a4b8abcb4d84a50c022e4f99181900360600190a150565b600080610e2d83610bc6565b600160a060020a03841660009081526001602090815260408083205483529082905290206004810154600390910154919350610e68916112ce565b9050915091565b600454600160a060020a031681565b600354604080517fda47d856000000000000000000000000000000000000000000000000000000008152600481018490529051600092600160a060020a03169163da47d856916024808301926020929190829003018186803b158015610ee357600080fd5b505afa158015610ef7573d6000803e3d6000fd5b505050506040513d6020811015610f0d57600080fd5b505192915050565b600354604080517fe16c7d98000000000000000000000000000000000000000000000000000000008152600481018490529051600092600160a060020a03169163e16c7d98916024808301926020929190829003018186803b158015610ee357600080fd5b610f9160008051602061142f833981519152610e7e565b600160a060020a03163314610fde576040805160e560020a62461bcd02815260206004820152601c6024820152600080516020611479833981519152604482015290519081900360640190fd5b610fe78161136d565b50565b600160a060020a03811660009081526001602052604081205481106110435760405160e560020a62461bcd02815260040180806020018281038252602981526020018061139d6029913960400191505060405180910390fd5b50600160a060020a031660009081526001602052604090205490565b60025481565b61107c60008051602061142f833981519152610e7e565b600160a060020a031633146110c9576040805160e560020a62461bcd02815260206004820152601c6024820152600080516020611479833981519152604482015290519081900360640190fd5b600081815260208190526040902060020154600160a060020a03161515611128576040805160e560020a62461bcd0281526020600482015260196024820152600080516020611499833981519152604482015290519081900360640190fd5b60008181526020818152604080832060020154600160a060020a031683526001909152812054116111a3576040805160e560020a62461bcd02815260206004820152601960248201527f4552524f523a3a50524f445543545f4e4f545f41435449564500000000000000604482015290519081900360640190fd5b6000818152602081815260409182902060058101805475ff000000000000000000000000000000000000000000191675010000000000000000000000000000000000000000001790556001810154600290910154835185815292830191909152600160a060020a03168183015290517f17f575c5fd027309a487484ea98a08697b9eb41ceb3229c05435bb333a7af8dc9181900360600190a150565b600354604080517f76b707b70000000000000000000000000000000000000000000000000000000081529051600092600160a060020a0316916376b707b7916004808301926020929190829003018186803b15801561129d57600080fd5b505afa1580156112b1573d6000803e3d6000fd5b505050506040513d60208110156112c757600080fd5b5051919050565b600354604080517fda70cc0300000000000000000000000000000000000000000000000000000000815260048101859052602481018490529051600092600160a060020a03169163da70cc03916044808301926020929190829003018186803b15801561133a57600080fd5b505afa15801561134e573d6000803e3d6000fd5b505050506040513d602081101561136457600080fd5b50519392505050565b6004805473ffffffffffffffffffffffffffffffffffffffff1916600160a060020a039290921691909117905556fe4552524f523a3a50524f445543545f4e4f545f415050524f5645445f4f525f4e4f545f4558495354534552524f523a3a46414c4c4241434b5f46554e4354494f4e5f4e4f575f414c4c4f5745444552524f523a3a50524f445543545f414444524553535f4e4f545f415050524f5645444552524f523a3a50524f445543545f414c52454144595f415050524f5645443a3a32496e7374616e63654f70657261746f72000000000000000000000000000000004552524f523a3a50524f445543545f414444524553535f414c52454144595f415050524f5645443a3a324552524f523a3a4e4f545f494e5354414e43455f4f50455241544f52000000004552524f523a3a50524f445543545f4e4f545f45584953545300000000000000a165627a7a72305820f015f7759580385622268cad2b71d14ea419c76a43afea0244a31b4e2434567d0029",
  "source": "pragma solidity 0.5.2;\n\nimport \"./LicenseStorageModel.sol\";\nimport \"../../shared/ModuleController.sol\";\n\ncontract LicenseController is LicenseStorageModel, ModuleController {\n    bytes32 public constant NAME = \"LicenseController\";\n\n    constructor(address _registry, uint256 _productIdIncrement)\n        public\n        WithRegistry(_registry)\n    {\n        // productIdIncrement should be equal to the value from the last deployed licence storage or zero\n        productIdIncrement = _productIdIncrement;\n    }\n\n    /**\n     * @dev Register new product\n     */\n    function register(bytes32 _name, address _addr, bytes32 _policyFlow)\n        external\n        returns (uint256 _id)\n    {\n        // todo: add restriction, allow only ProductOwners\n        require(productIdByAddress[_addr] == 0, \"ERROR::PRODUCT_IS_ACTIVE\");\n\n        _id = ++productIdIncrement;\n\n        // todo: check required policyFlow existence\n\n        products[_id].name = _name;\n        products[_id].addr = _addr;\n        products[_id].policyFlow = _policyFlow;\n        products[_id].release = getRelease();\n\n        emit LogNewProduct(_id, _name, _addr, _policyFlow);\n    }\n\n    /*\n     * @dev Approve product\n     */\n    function approveProduct(uint256 _id) external onlyInstanceOperator {\n        require(products[_id].addr != address(0), \"ERROR::PRODUCT_NOT_EXISTS\");\n        require(\n            products[_id].approved != true,\n            \"ERROR::PRODUCT_ALREADY_APPROVED::2\"\n        );\n        require(\n            productIdByAddress[products[_id].addr] == 0,\n            \"ERROR::PRODUCT_ADDRESS_ALREADY_APPROVED::2\"\n        );\n        // todo: check if policyFlow is correct\n        // todo: should we allow products with the same name?\n\n        products[_id].approved = true;\n        productIdByAddress[products[_id].addr] = _id;\n\n        emit LogProductApproved(_id, products[_id].name, products[_id].addr);\n    }\n\n    /*\n     * @dev Disapprove product\n     */\n    function disapproveProduct(uint256 _id) external onlyInstanceOperator {\n        require(products[_id].addr != address(0), \"ERROR::PRODUCT_NOT_EXISTS\");\n        require(products[_id].approved == true, \"ERROR::PRODUCT_NOT_APPROVED\");\n        require(\n            productIdByAddress[products[_id].addr] > 0,\n            \"ERROR::PRODUCT_ADDRESS_NOT_APPROVED\"\n        );\n\n        products[_id].approved = false;\n        delete productIdByAddress[products[_id].addr];\n\n        emit LogProductDisapproved(_id, products[_id].name, products[_id].addr);\n    }\n\n    function pauseProduct(uint256 _id) external onlyInstanceOperator {\n        // todo: should be restricted to ProductOwners\n        require(products[_id].addr != address(0), \"ERROR::PRODUCT_NOT_EXISTS\");\n        require(\n            productIdByAddress[products[_id].addr] > 0,\n            \"ERROR::PRODUCT_NOT_ACTIVE\"\n        );\n\n        products[_id].paused = true;\n\n        emit LogProductPaused(_id, products[_id].name, products[_id].addr);\n    }\n\n    function unpauseProduct(uint256 _id) external onlyInstanceOperator {\n        // todo: should be restricted to ProductOwners\n        require(products[_id].addr != address(0), \"ERROR::PRODUCT_NOT_EXISTS\");\n        require(\n            productIdByAddress[products[_id].addr] > 0,\n            \"ERROR::PRODUCT_NOT_ACTIVE\"\n        );\n\n        products[_id].paused = false;\n\n        emit LogProductUnpaused(_id, products[_id].name, products[_id].addr);\n    }\n\n    /**\n     * @dev Check if contract is approved product\n     */\n    function isApprovedProduct(address _addr)\n        public\n        view\n        returns (bool _approved)\n    {\n        _approved = products[productIdByAddress[_addr]].approved == true && productIdByAddress[_addr] > 0 && products[productIdByAddress[_addr]].addr == _addr;\n    }\n\n    /**\n     * @dev Check if contract is paused product\n     */\n    function isPausedProduct(address _addr) public view returns (bool _paused) {\n        _paused = products[productIdByAddress[_addr]].paused == true;\n    }\n\n    function isValidCall(address _addr) public view returns (bool _valid) {\n        _valid = isApprovedProduct(_addr) && !isPausedProduct(_addr);\n    }\n\n    function authorize(address _sender)\n        public\n        view\n        returns (bool _authorized, address _policyFlow)\n    {\n        _authorized = isValidCall(_sender);\n        _policyFlow = getContractInRelease(\n            products[productIdByAddress[_sender]].release,\n            products[productIdByAddress[_sender]].policyFlow\n        );\n    }\n\n    function getProductId(address _addr)\n        public\n        view\n        returns (uint256 _productId)\n    {\n        require(\n            productIdByAddress[_addr] > 0,\n            \"ERROR::PRODUCT_NOT_APPROVED_OR_NOT_EXISTS\"\n        );\n\n        _productId = productIdByAddress[_addr];\n    }\n}\n",
  "sourcePath": "/Users/jo/projects/raincoat/gif/framework/core/gif-contracts/contracts/modules/license/LicenseController.sol",
  "compiler": {
    "name": "solc",
    "version": "0.5.2+commit.1df8f40c.Emscripten.clang"
  },
  "schemaVersion": "3.0.2",
  "updatedAt": "2019-07-12T18:26:42.630Z",
  "devdoc": {
    "methods": {
      "isApprovedProduct(address)": {
        "details": "Check if contract is approved product"
      },
      "isPausedProduct(address)": {
        "details": "Check if contract is paused product"
      },
      "register(bytes32,address,bytes32)": {
        "details": "Register new product"
      }
    }
  },
  "userdoc": {
    "methods": {}
  }
}